:040000006F00D012AB
:100004000000000000000000CA040000CE0400004C
:10001400000000002A0900000000000000000000A9
:100024002A0900002A090000000000000000000066
:100034002A090000000000002A0900000000000056
:100044002A0900002A0900002A0900000000000013
:100054002A0900002A0900002A0900002A090000D0
:100064002A0900002A0900002A0900002A090000C0
:100074002A0900002A0900002A0900002A090000B0
:100084002A0900002A0900002A0900002A090000A0
:100094002A0900002A0900002A0900002A09000090
:1000A4002A0900002A0900002A0900002A09000080
:1000B4002A0900002A0900002A0900009A06000003
:1000C4002A0900002A0900002A0900002A09000060
:1000D4002A0900002A0900002A0900000000000083
:1000E400000000000000000000000000000000000C
:0C00F40000000000000000000000000000
:10010000397101436EC619A0397141536AC866CA74
:1001100062CC5ECE19A0397101535AD056D252D456
:100120004ED64AD826DA22DC06DE330161408282CE
:1001300041114AC026C222C406C68282B24D410184
:10014000024D924C224CB24B4101024B924A224A40
:10015000B2494101024992442244B24041018280A5
:100160003D432A876373C3029377F700BDEFADE584
:10017000937606FF3D8ABA960CC34CC30CC74CC796
:100180004107E36BD7FE11E28280B306C3408A06C3
:100190009702000096966780A6002307B700A30683
:1001A000B7002306B700A305B7002305B700A304D3
:1001B000B7002304B700A303B7002303B700A302CB
:1001C000B7002302B700A301B7002301B700A300C3
:1001D000B7002300B700828093F5F50F9396850052
:1001E000D58D93960501D58D61B79396270097021B
:1001F000000096968682E78086FA9680C1171D8F4A
:100200003E96E374C3F8A5B7EFF29FF2AA840945BE
:10021000EF00D04101E9373500001305C5CAEF00F2
:1002200050650DBFA30095002300050089452A8471
:10023000A52E2285EF003040EDB7EFF27FEF154598
:10024000EF00D03E01E9373500001305C5CAEF00C5
:10025000506209B7EF00303EEDBFEFF27FED93053E
:10026000F00F11E181451306002013854185CD3D36
:10027000D5B5EFF2FFEB938441851304000B13090E
:10028000400B22855137014541374145B53F0504B3
:100290002685930500081374F40F453793840408EA
:1002A000E31124FF45BD93178501E18763C9070268
:1002B000FD4763E6B70293D735009E07AA979D894D
:1002C000054713854185B315B7003E95E2058307C1
:1002D0000500E1856316E600DD8D2300B500828010
:1002E00093C5F5FFFD8DD5BFEFF29FE1930D05FEA0
:1002F00013F7FD0F9307E005411163E4E70A83D785
:10030000018283C40500130700082E8DA69713846D
:1003100001826348F70803CA1500035724009306B7
:100320000002529763CFE606B30BBA0303A9850018
:10033000933716002A8BB289814C3EC6860B63EF39
:100340004C0183570400630B09046E998344090030
:10035000BE94231094005A854101CDB303274D006C
:10036000014C5E97835A07000355040063659C00A7
:10037000850C890BE9B78345240033978A01629580
:10038000E695931707011375F50F93F5F50F4E8654
:1003900063C307003246013F050CF9B7C204C180B0
:1003A00045BF014B4DBFEFF21FD74111AA842E89E3
:1003B000B2890384040001E42285410179B3314606
:1003C000CA850A85EF00D02722854E868A85293F77
:1003D00003840400E31285FE8504E1BF9387018254
:1003E0002390A7002391B7008280EFF27FD42A8464
:1003F00013051008113D2285013DA9BBEFF25FD323
:1004000001E981471305E00AA382F182F53B99B324
:1004100085471305F00ACDBFEFF29FD113054006C3
:10042000EF0050120145D93F13050002F13B014591
:10043000E13B1305000BC93B1305800CF13301456B
:10044000E1334145D133130500047D3B1305F00F23
:10045000693F1305100A4D3B1305600A75331305F8
:10046000800A5D337D454D331305400A713B13050A
:10047000300D593B0145493B1305500D71331305B0
:10048000000F59331305900D413313052002AD3B86
:100490001305A00D953B0945853B1305B00DAD3304
:1004A0001305000295331305D008B93B5145A93B0C
:1004B0000545A937014555336D3B938701820547B3
:1004C00023A007002382E70071B17300203001A050
:1004D000EFF21FC641118545454502C202C402C65E
:1004E000EF00407437053008854513050540812D20
:1004F000B7070C003EC2E1473EC64C0085473715A2
:1005000001403EC46529B7E700E0216723A2E71058
:100510008D654157A387E7421306403D938505CD7E
:1005200037450020EF00D011B777024003C7C7C19D
:1005300013672700238EE7C03147238EE7C003C728
:10054000C7C113671700238EE7C0410121B193078C
:10055000F00F3385A7402205C98D63FBC7029317AF
:10056000160093F707601376F60F5D8E4206B70705
:1005700000F0377702405D8E834767C2D18D93E7E5
:1005800027002303F7C2B777024023A0B7C28280B7
:10059000B70700FE6206377702407D8E834767C249
:1005A000D18D93F7D70FF1BFEFF2FFB62A843775DD
:1005B0000240C147AE84130585C2938981831389A4
:1005C000C18363EFB7022E86A285EF0070072380F8
:1005D000090023100900B7770240239297C203C78E
:1005E00067C2136717002383E7C203C737C21377B5
:1005F000E70FA381E7C213073003238FE7C0B1B62B
:10060000A2854146EF00D00385472380F9009387F8
:1006100004FF2310F900410423A681826DBFEFF28D
:100620009FAF23A8C18223A4C182239FD182239D8F
:10063000D18223AAA1822A842390B18437750240F3
:10064000A147AE84130585C3938981831389C18330
:1006500063E7B7022E86A285EF00807E2380090023
:1006600023100900B777024003C767C21377E70F6B
:100670002383E7C213073003238FE7C0F9B4A285B1
:100680002146EF00E07B85472380F900E114210437
:100690002310990023A68182F1B737770240834760
:1006A000C7C1E207E18763DA0708834637C203C69A
:1006B0008183858A93878183E9C6054803A5818262
:1006C00093868182631D060709462380C700930530
:1006D00087C203D7A18321461388A183637AE606E4
:1006E000B778024083C768C2918B91C783C778C22D
:1006F0001D8E1376F60F930785009CC26117231099
:10070000E800EF00E073B777024003C767C2118BC0
:1007100005C303C767C21377B70F2383E7C283D626
:10072000E18303A6018383D5018403A54183C53DED
:10073000B77702402D47A38EE7C073002030894869
:100740008145E31816F923800701930507C351B7C4
:10075000014645DB37730240834863C21376F70FC7
:1007600093F8480063880800034773C22146198E36
:100770001376F60F231008002380070023A006003D
:1007800049B7054883A5C1829386C18263110603D8
:1007900009462380C700130587C21388C183035706
:1007A00008002146637EE60093878500B9B7894833
:1007B0000145E31416FF23800701130507C3F1BFAA
:1007C000014621D31376F70F75B7EFF27F964111EB
:1007D0008545214502C202C402C6A92185673EC2E1
:1007E00037150140C1473EC64C008547130505C07B
:1007F0003EC4E92241016FF0FF95EFF27F93411172
:100800000945F12EDD20112B716513050520B52357
:10081000B707002083A50708373500001305450AF0
:10082000EF0030057922AA85373500001305450B06
:10083000EF003004373500001305450CEF001015AC
:100840006937371401406931130504C005468565D1
:10085000E92C130680079D451305B003CD396D3E85
:100860000545693EC1454145953E8D6531469385B7
:1008700005C40A85F1233735000005468A8513052E
:10088000850D1536EFF0FF9E8144130404C0130557
:10089000401F4D2999C401468144856522857124F4
:1008A000FDB705468544D5BFB71702409843B70644
:1008B00000F99386F6F51367170098C3D8431367BA
:1008C0000705D8C3D843758FD8C3372702401443D0
:1008D000F19A14C3144393E6260014C3D843137744
:1008E000F7F0D8C3D843D8C38280B7160240DC42A1
:1008F000918313F7F700B707002093870700BA9793
:1009000083C70700D4423777DC0293F7F70F13074A
:1009100007C093F606083356F70099E23356F702FC
:10092000B707002023A0C708828001A097010020FC
:10093000938141F5174100201301C16C1735000068
:100940001305858497F5FF1F9385C56B1386018278
:1009500063FAC5008322050023A055001105910507
:10096000E3EAC5FE13850182938581A56377B5000F
:10097000232005001105E36DB5FEFD42739002BC16
:100980008D42739042809302800873A0023097F2E8
:10099000FFFF9382626793E2320073905230EFF070
:1009A000BFF097020000938282E5739012347300C7
:1009B0002030B7F7FF1F03A54770828098459377D3
:1009C00007011378F70081C7DC413368F8009441D0
:1009D000814713F6F60F39C21C410146854E3D4F43
:1009E000930F800293028004214EB398CE00B3F59A
:1009F00016016391B80213132600B3156F0093C557
:100A0000F5FFED8F33136800B367F3006317F70D3D
:100A1000232A15010506E31AC6FD1CC1416613060B
:100A200006F0758E3DC23716014093050680631BA4
:100A3000B50A83A74180A145854E3D4F930F8002A3
:100A400093028004414E3393BE0033F66600631276
:100A5000C302139625000116B318CF0093C8F8FF00
:100A6000B3F7F8003316C800D18F6319F709232AAA
:100A700065008505E399C5FD371601405CC1930506
:100A800006806312B50823A2F180C16763E6F6040D
:100A9000504D8147054E3D4F930F800293028004D5
:100AA000A14E93850701B315BE00B3F8B60063915C
:100AB00015039398270033131F011343F3FF337675
:100AC000C300B318180133E6C800631AF7054CC910
:100AD0008507E398D7FD50CD8280E31D57F2232888
:100AE00015010DBF930506C06315B50083A781806E
:100AF00099B7E312C5F483A7C18035BFE31B57F64E
:100B000023286500BDB7930506C06315B50023A46F
:100B1000F180A5BFE31BC5F623A6F180BDB7E3199D
:100B200057FAB315FE000CD165B701CA93970501BA
:100B3000C1831CC9C1810CD182804CC98280B70895
:100B4000014083A748001357050193160501370696
:100B50003000131345003D8BC1823378C5006350CC
:100B600003066313C80203A64800370700F17D1788
:100B7000F98F718F23A2E8009DC145811375050788
:100B80003395A600C98F21A813169500635D060052
:100B90003787FCFF7D17F98F99C1BE06D58F3707C0
:100BA00001405CC38280370620006313C800410700
:100BB0001D463317E6001347F7FFF98F75BF63151E
:100BC000C80041070D46F5B71316B500E34C06FE05
:100BD00013571501137707073397E600E9BF23A2E0
:100BE000A1848280B777DC02938707C01CC13716C7
:100BF0000240584211839376F7003707002013070D
:100C00000701369783460700504293F6F60F137696
:100C1000060833D7D70019E233D7D70258C118C511
:100C200058C5828099C5371702401C4F5D8D08CF8B
:100C30008280B7170240984F1345F5FF798D88CF12
:100C40008280EFF2EFCE83560501F577FD17F58F21
:100C500083D6650003D7C5000111D58F2318F50091
:100C60008356C500FD779387379FF58F83D6450060
:100C70002A842EC6D58F83D68500D58F83D6A5002E
:100C8000D58F2316F50083574501C207C18393F71B
:100C9000F7CFD98F231AF5000808A937B7470140C5
:100CA00093870780B245631FF402F2476547B38715
:100CB000E7029841930640060A07B3D7E70233D705
:100CC000D702B3F7D7021207920793872703B3D748
:100CD000D702BD8BD98FC207C1832314F4000561ED
:100CE0006FF04FC7E247D9B781C98357C50009677D
:100CF000D98F2316F50082800357C500F977FD17B9
:100D0000F98FC5BF93F5F51F2312B50082800355F7
:100D100005006D8D3335A0008280B707002083A7C2
:100D2000070837177A0013070720B3D7E70293F7AE
:100D3000F70F2385F1841307803EB387E7022394DE
:100D4000F1848280B7F700E0D8438146799BD8C30D
:100D500003D781843306A70290CBD4CB9843136783
:100D6000070198C398431367170298C3D843058BAC
:100D700075DF9843799B98C38280EFF26FBB2A841A
:100D80001165011185452105713D930700403EC263
:100D90003715014085473EC44C00E147130505C0A7
:100DA0003EC6293922C837440140B70708000C085D
:100DB000130504803ECC02CA231E01005935854527
:100DC00013050480153705616FF0CFB8EFF2AFB4AB
:100DD000B7440140AE89328901449384048063455D
:100DE00024014A856FF06FB6930500042685053708
:100DF00065DDB38789008385070026850504C20564
:100E0000C1810937E9BF138701811C43938681A5FE
:100E10003E95636BD500B75600209386068063E548
:100E2000A60008C33E858280FD57EDBF93874181B0
:100E3000AA858843ADA293874181AA85884365A886
:100E4000B3C7A5008D8B3307C50081E78D4763EEDF
:100E5000C700AA876370E50A83C605008507850574
:100E6000A38FD7FEE3EAE7FE828093763500AA8758
:100E700091CA83C6050085078505A38FD7FE93F623
:100E80003700FDB79376C7FF138606FE63F0C706EB
:100E900083A3050083A2450083AF850003AFC5008F
:100EA00083AE050103AE450103A3850183A8C501F7
:100EB0009385450223A0770003A8C5FF23A257000E
:100EC00023A4F70123A6E70123A8D70123AAC7017A
:100ED00023AC670023AE17019387470223AE07FFB9
:100EE00075B790419107910523AEC7FEE3EBD7FE9E
:100EF000E3E4E7F68280DDC183A7C5FF411122C488
:100F000006C626C21384C5FF63D307003E94AA8495
:100F1000EF0010149387C1849C4381EF23220400C7
:100F200023A681842244B2402685924441016F0069
:100F30005012637EF40014403307D4006396E70038
:100F40009843DC43369718C05CC0D9BFBA87D843F2
:100F500019C3E37DE4FE94433386D700631F860004
:100F60001040B29694C33386D700E31DC7FA1043EE
:100F70005843B29694C3D8C375B76375C400B147DC
:100F80009CC04DB71040B306C4006316D70014438D
:100F90005843B29614C058C0C0C369B782800111CB
:100FA00026CA93843500F19806CE22CC4AC84EC694
:100FB000A104B14763F3F404B14463E2B4042A89A1
:100FC000EF0010099387C18498433A8439E09387EE
:100FD00001859C4391E781454A85752A23A8A18410
:100FE000A6854A854D2AFD5963193507B147232047
:100FF000F9004A85EF00F00529A0E3D004FCB147D1
:101000001CC10145F2406244D2444249B2490561E3
:1010100082801C40858F63CF0702AD4663F6F600E1
:101020001CC03E9404C031A05C406313870223A619
:10103000F1844A85EF00F0011305B40093074400E2
:1010400061993307F5405DDF3A94898F1CC05DBF1D
:101050005CC3C5B72287404095BF13043500719823
:10106000E30285FCB305A4404A853522E31C35FB29
:10107000B5BF39713EDA2ED232D436D63AD842DCF8
:1010800046DE9387418122CC804326CA06CEAA84BD
:1010900009C41C4C99E32285812B0C4454102686EC
:1010A000228536C6EF00D001F2406244D24421616D
:1010B0008280011126CA4AC806CE22CC4EC652C42E
:1010C000AA842E8901C51C4D91E3392B9C4C804488
:1010D00099E32685112B9727000093872703631C2C
:1010E000F402C0408357C400A18BB1C71C48A1C7FC
:1010F000FD59294A1C4483450900FD17B1E91CC468
:1011000063DE07062286A94526855528FD57630814
:10111000F502294535A0972700009387270163141E
:10112000F4008044C1B797270000938727FCE31B96
:10113000F4FAC04445BFA2852685912255D97D5534
:10114000F2406244D2444249B249224A0561828057
:101150001CC4050963D70700184C63CBE7006389FB
:1011600045011C401387170018C02380B70059B7EA
:1011700022862685A920E31F35F7D1B71C401387A7
:10118000170018C029472380E70061B79387418182
:10119000AA85884339BF411122C42A842E8523AAF7
:1011A00001A406C68D31FD576317F500938741A54D
:1011B0009C4391C31CC0B240224441018280011172
:1011C00022CC26CA4AC806CE4EC6AA842E893284AC
:1011D00001C51C4D91E3092997270000938707F368
:1011E0006319F406C0401C4C1CC48357C400A18B77
:1011F000C9C31C48BDCF1C4808409379F90F137927
:10120000F90F1D8D5C486346F500A28526856D2C7F
:101210002DE51C440505FD171CC41C401387170051
:1012200018C0238037015C486389A7008357C40036
:10123000858B81CBA9476316F900A2852685692491
:101240000DEDF24062444A85D2444249B2490561FB
:10125000828097270000938767ED6314F400804431
:1012600059B797270000938767E8E31EF4F6C04458
:101270009DBFA285268521203DDD7D59D9B741112D
:101280009387418126C2844322C44AC006C62A8964
:101290002E8489C49C4C99E32685B92697270000A3
:1012A0009387C7E6631CF402C0400317C40093177A
:1012B0000701C18393F68700B5EE93F607019DEE13
:1012C000A5472320F900136707042316E4007D5582
:1012D000B240224492440249410182809727000093
:1012E0009387C7E46314F4008044C1B797270000D4
:1012F0009387C7DFE31BF4FAC04445BF918B8DC7CA
:101300004C5889C9930744046384F5004A85E5363F
:10131000232A04028357C4002322040093F7B7FD55
:101320002316F4001C481CC08357C40093E78700B1
:101330002316F4001C4881EF8357C40013070020D4
:1013400093F707286385E700A2854A85952183578F
:10135000C40013F7170005C75C4823240400B30733
:10136000F0401CCC1C480145A5F78317C40013F7B7
:10137000070839DF93E707042316F40089BF898B38
:10138000014791E3584818C4F1BF83D7C500011144
:1013900022CC26CA06CE4AC84EC613F78700AA84B6
:1013A0002E8479EFD841634DE000B841634AE000F4
:1013B0000145F2406244D2444249B249056182800B
:1013C00058547DD703A904009396370123A0040045
:1013D00063DE060670488357C400918B99C75C4052
:1013E0001D8E5C5899C33C401D8E5C540C50814648
:1013F00026858297FD570357C400631DF50094406E
:10140000F54763E9D706B70740208507B3D7D7006C
:10141000858BADC31C48232204001CC093173701E1
:1014200063D80700FD576314F5009C4091E368C83A
:101430004C5823A02401ADDD930744046385F500D7
:101440002685EFF05FAB232A04029DB70C500146BE
:10145000854626850297FD572A86E31EF5F69C40B1
:10146000BDDB75476385E70059476394E70423A014
:1014700024013DBF136707042316E4007D5515BF03
:1014800083A90501E38609F203A905008D8B23A03A
:10149000350133093941014791E3D84918C4E3596B
:1014A00020F11C540C50CA864E86268582976349CB
:1014B000A0008357C40093E707042316F4007DBF00
:1014C000AA993309A940E1BF9C49B9CF011122CCA7
:1014D00006CE2A8411C51C4D81E72EC63122B245A5
:1014E00097270000938787C2639BF5004C40839742
:1014F000C50095C722856244F240056179B59727FA
:1015000000009387A7C26394F5000C44CDB79727DA
:1015100000009387A7BDE39CF5FC4C44C9BFF24093
:10152000624401450561828001458280411122C4E7
:1015300006C62A842316B5002317C50023200500FC
:101540002322050023240500232205062328050065
:10155000232A0500232C0500214681451305C505D6
:10156000EFE01FC0971700009387879A5CD097170A
:1015700000009387E79C1CD497170000938727A14E
:101580005CD4971700009387E7A300D01CD8B24023
:1015900022444101828097050000938525F3B1A282
:1015A000411126C2130680069384F5FFB384C4025A
:1015B0004AC02E8922C406C693854407EFF03F9E99
:1015C0002A8401CD2320050023222501310508C4EA
:1015D000138684068145EFE0BFB82285B2402244DD
:1015E00092440249410182801C4DADE3411106C67F
:1015F00022C497070000938747FA1CD593878181FF
:101600009C4323240504232605042328050463148E
:10161000F50085471CCD2A841D2848C02285052851
:1016200008C422852D2048C4484001469145FD3D0F
:1016300008440546A545DD3D48440946C945FD35F4
:1016400085471CCCB24022444101828082804111F6
:101650009387818126C284434AC006C69C4C22C41B
:101660002A8999E326854937938484048044DC40A1
:10167000FD1763D607009C40B9CF8440C5BF031750
:10168000C40039E7C177850723220406232004001C
:1016900023220400232404005CC423280400232AFA
:1016A0000400232C0400214681451305C405EFE006
:1016B0003FAB232A0402232C040223240404232600
:1016C00004042285B24022449244024941018280AE
:1016D0001304840671BF91454A85D93588C051FDF0
:1016E000B1472320F9000144E9BF797122D44AD0DF
:1016F00052CC56CA5AC85EC606D626D24ECE2A8AC2
:10170000AE8A130485040149054BFD5B09ECB25018
:1017100022544A8592540259F249624AD24A424BB3
:10172000B24B45618280044483294400FD1963D48F
:1017300009000040E1BF83D7C400637BFB008397AF
:10174000E40063877701A6855285829A3369A900F0
:1017500093848406E1BF1971A6DAAE848395E5000F
:10176000A2DC86DE328463DC050083D7C40023A0BC
:10177000060093F7070885E7930700401DA030088F
:1017800036C6EF00B009B246E34105FE7247BD67B9
:10179000F98F7977BA9793B717009CC2F1BF930777
:1017A00000041CC0F6506654D6540145096182807D
:1017B00083D7C500011122CC06CE26CA4AC8898B20
:1017C0002E8489CF930774041CC01CC885475CC84D
:1017D000F2406244D2444249056182807400300084
:1017E000AA84953FA2452A892685EFF04FFB01ED9B
:1017F0008317C40013F7072061FFF19B93E72700CD
:101800002316F400C1B797070000938707D99CD42B
:101810008357C40008C008C893E707082316F400DC
:10182000A2475CC8B24791CF8315E4002685EF003C
:10183000900101C98357C400F19B93E71700231659
:10184000F4008357C4003369F9002316240149B713
:10185000828082801C46FD171CC663DA0700184E82
:1018600063C5E700A9476394F5006FF05F951C42DC
:101870002E851387170018C22380B70082800111BC
:1018800022CC26CA4AC84EC652C406CE2A89AE8980
:101890003284B304D6007D5A63149400014509A82C
:1018A000834504004E864A8575370504E31645FFD7
:1018B000F2406244D2444249B249224A05618280E0
:1018C000357122CD26CB4AC94EC706CF52C556C365
:1018D0005AC1DEDEE2DCE6DAAA89AE8432893684D9
:1018E00001C51C4D91E309339727000093870782B8
:1018F000639BF40C83A4490083D7C400A18BF5C774
:101900009C48E5C793070002A304F1029307000374
:1019100002D22305F10222C6930B5002972A00003F
:10192000938ACA82054C294B4A848347040099C391
:101930006390770FB30C2441638D0C00E6864A86D2
:10194000A6854E852D3FFD576306F51E9256E696F9
:1019500036D283470400638F071CFD571309140018
:1019600002C802CE3ECA02CCA309010482D4834538
:10197000090015465685152713041900C24759E971
:1019800013F7070109C713070002A309E10413F7BE
:10199000870009C71307B002A309E10483460900C1
:1019A0001307A0026380E608F2474A848146254671
:1019B0000347040093051400130707FD6379E60A43
:1019C000B5CA3ECE85A89717000093872776639502
:1019D000F40083A489000DB797170000938707715F
:1019E000E39CF4F083A4C90001BFA6854E85EFF007
:1019F0001F8909D97D55FA406A44DA444A49BA49EF
:101A00002A4A9A4A0A4BF65B665CD65C0D61828074
:101A1000050421BF330555413315AC00C98F3EC8BD
:101A20002289B1B7324793064700184336C6634947
:101A300007023ACE034704009307E002631FF7044E
:101A4000034714009307A002631BF702B24709047F
:101A5000138747009C433AC663C107023ECA35A8B4
:101A60003307E04093E727003ACE3EC8E1B7B3879B
:101A7000670385462E84BA9725BFFD57C5B7050471
:101A800002CA814681472546034704009305140096
:101A9000130707FD6376E606F1F2834504000D4661
:101AA000171500001305056BCD2B11CD97170000FE
:101AB0009387476A1D8D93070004B397A70042459B
:101AC00005045D8D2AC883450400194617150000DA
:101AD00013058568130914002304B1027D2B3DC151
:101AE00097E7FFFF9387075295E74247B24713777F
:101AF000071009CF91073EC69257D2973ED22DB517
:101B0000B387670385462E84BA97BDBF9D07E19BC7
:101B1000A107D5B7780097060000938686D626865B
:101B20000C084E8597000000E7000000FD572A8A48
:101B3000E314F5FC83D7C40093F70704E39C07EA9A
:101B4000125555BD780097060000938686D32686E9
:101B50000C084E85012AD9BF797156CA9C49BA8AA8
:101B6000984522D426D24ECE52CC06D64AD05AC858
:101B70005EC6AA892E84B284368A63D3E700BA8708
:101B80009CC00347340419C385079CC01C4093F7CD
:101B9000070281C79C4089079CC003290400137970
:101BA0006900631A0900130B9401FD5B5C449840C3
:101BB000998F634CF9041C408346340493F7070261
:101BC000B336D000A5EB13063404D2854E85829A35
:101BD000FD576303F5041C4011469840998B54440B
:101BE00081446397C700B384E64063D30400814413
:101BF0001C4418486354F700998FBE940149690446
:101C00007D5B63982405014509A885465A86D285DF
:101C10004E85829A631E75017D55B25022549254AE
:101C20000259F249624AD24A424BB24B4561828024
:101C30000509ADBF3307D40013060003A301C70491
:101C40000347540493871600A2978906A381E704EB
:101C50009DBF85462286D2854E85829AE30E65FB1E
:101C6000050945B7797122D426D24AD04ECE06D680
:101C700052CC56CA5AC8B68983C6850193079006C6
:101C80003289AA842E8413863504638DF60263E2BA
:101C9000D706930780056387F61863EDD700638046
:101CA000062293073004638EF60A930A2404230164
:101CB000D404C9A0930730066385F60A930740064B
:101CC000E395F6FE1C40084393F60708930545008C
:101CD000C5C61C410CC363D807001307D002B30765
:101CE000F040A301E4049716000093866647294755
:101CF0006DA8930700076383F61663E5D702930781
:101D0000E006638AF6189307F006E390F6FA0C40B3
:101D10001C4313F80508138547006307080608C32A
:101D20009C438DA893075007E383F6FE9307800733
:101D3000638AF61293073007E399F6F61C43D04105
:101D400081459386470014C383AA07005685B126B0
:101D500001C53305554148C05C401CC8A3010404BB
:101D600071A81C43930A2404938647009C4314C320
:101D70002301F4048547D5B793F607041C410CC32F
:101D8000B9DAC207C18781BF93F5050408C3C9D971
:101D900083D707001307F0066387E60E9716000047
:101DA0009386063C2947A30104044C400CC463C538
:101DB000050008406D9908C099E3B28A91CDB28AB6
:101DC000B3F5E702FD1AB69583C505002380BA0076
:101DD000B3D5E70263FFE70AA147631EF7001C4083
:101DE000858B91CB58401C4863C7E70093070003DD
:101DF000A38FFAFEFD1A3306564110C84E87CA86D5
:101E00007000A2852685893B7D5A631E450B7D5552
:101E1000B250225492540259F249624AD24A424B79
:101E200045618280A382D5049716000093864633CD
:101E30000C40084313F805081C411105630D080206
:101E400008C313F7150001C793E505020CC041470D
:101E5000B9FB0C4093F5F5FD0CC0B1B79C4193E77D
:101E600007029CC193078007A302F40497160000A1
:101E70009386463075BF13F8050408C3E30308FCD6
:101E8000C207C1837DBF971600009386662D214748
:101E900019BFAE8735B794411C43CC4913F80608E7
:101EA000138547006306080008C39C438CC301A840
:101EB00008C393F606049C43F5DA2390B700232861
:101EC0000400B28A25BF14485686CA8526858299A1
:101ED000E30F45F31C40898B8DE7B2474844E35933
:101EE000F5F23E8535B785465686CA8526858299A0
:101EF000E30F65F1050A5C443247998FE345FAFE2A
:101F0000E9BF014A930A94017D5BF5B7411122C4F0
:101F10002E848395E50006C6712A634905007C4836
:101F2000AA977CC8B2402244410182808357C400F2
:101F30007D777D17F98F2316F400EDB783D7C500A1
:101F4000011122CC26CA4AC84EC606CE93F7071006
:101F5000AA842E843289B68991C78395E500894683
:101F6000014631228357C4007D777D17F98F2316F0
:101F7000F4008315E4006244F240CE864A86B249FA
:101F800042492685D24405613DA8411122C42E84D0
:101F90008395E50006C6E128FD570357C400631B7F
:101FA000F500FD77FD17F98F2316F400B2402244A7
:101FB000410182808567D98F2316F40068C8FDB778
:101FC0008395E50005A8411122C42A842E85B28597
:101FD000368623AA01A406C6EFE05FDFFD5763172C
:101FE000F500938741A59C4391C31CC0B240224495
:101FF00041018280411122C42A842E8523AA01A492
:1020000006C6F928FD576317F500938741A59C4341
:1020100091C31CC0B240224441018280411122C4BC
:102020002A842E85B28523AA01A406C6C120FD57A5
:102030006317F500938741A59C4391C31CC0B24030
:10204000224441018280411122C42A842E8523AA80
:1020500001A406C65520FD576317F500938741A5D7
:102060009C4391C31CC0B240224441018280411173
:1020700022C42A842E85B285368623AA01A406C6E8
:102080005120FD576317F500938741A59C4391C3E9
:102090001CC0B24022444101828093F5F50F2A967C
:1020A0006314C5000145828083470500E38DB7FEB8
:1020B0000505FDB7411122C42A842E85B2853686D6
:1020C00023AA01A406C6A920FD576317F50093872C
:1020D00041A59C4391C31CC0B2402244410182806F
:1020E0009307800523AAF1A47D558280930780057C
:1020F00023AAF1A47D5582809307800523AAF1A429
:10210000014582809307800523AAF1A47D55828032
:102110009307800523AAF1A47D558280000000006A
:1021200000000000000000000000000000000000AF
:10213000000000000000000000000000001000107F
:10214000001000100010001000100010000000002F
:102150000010000000000000000000180018001827
:10216000000000000000000000000000000000006F
:102170000000000000000000800480048004C01FF4
:10218000000900090009C03F000900120012000008
:10219000000000000004000F8010801000100008F4
:1021A00000078000800080108010000F00040000F5
:1021B00000000000001C401280128012001D00016F
:1021C000700290049004900870000000000000006D
:1021D00000000006000900110012000C000C401263
:1021E0004011C0108010600F0000000000000000CF
:1021F000002000200020000000000000000000007F
:1022000000000000000000000000000000040008C2
:10221000001000100010001000100010001000103E
:10222000001000100010000800040020001000083A
:10223000000800080008000400040004000800086A
:102240000008000800100020000000080008002915
:10225000001E00140012000000000000000000003A
:102260000000000000000000000000000004000466
:1022700000040004C03F0004000400040004000047
:10228000000000000000000000000000000000004E
:10229000000000000000000000000010001000100E
:1022A000000000000000000000000000000000002E
:1022B000003C0000000000000000000000000000E2
:1022C000000000000000000000000000000000000E
:1022D00000000000000000100000000000000000EE
:1022E00000020002000400040004000800080008C6
:1022F0000010001000100010000000000000000F8F
:10230000801080108010801080108010801080104D
:102310008010000F00000000000000000006001AFE
:10232000000200020002000200020002000200029D
:1023300000020000000000000000000F801080106C
:102340008000000100010002000400080010801F4E
:102350000000000000000000000F801080108000CE
:10236000800000078001800080108010000F0000B6
:102370000000000000000001000300050005000946
:10238000000900110021C03F000100010000000011
:1023900000000000800F001000100010000F8010DF
:1023A000800080008010800800070000000000000E
:1023B00000000003000C00100010001F80108010AF
:1023C000801080108010000F00000000000000004E
:1023D000803F8000000100010001000200020004B3
:1023E0000004000800080000000000000000000FCA
:1023F0008010801080108010000F801980108010D5
:102400008010000F0000000000000000000F80108E
:102410008010801080108010800F800080000001EC
:10242000000E00000000000000000000000000009E
:10243000001000000000000000000000000000107C
:10244000000000000000000000000000000000107C
:10245000000000000000000000000000001000105C
:1024600000100000000000000000000080000003D9
:10247000000C0010000C00038000000000000000B1
:10248000000000000000000000000000801F0000AD
:102490000000801F0000000000000000000000009D
:1024A00000000000000000000010000C000380008D
:1024B0000003000C001000000000000000000000FD
:1024C000000E0011001100010001000200040004D0
:1024D00000000000000400000000000000000000F8
:1024E000F0010C060408E21022112212221222121C
:1024F0002412DC1100082004C003000000060006BE
:1025000000050009000980088010800F401040205D
:1025100020200000000000000000801F80104010FC
:1025200040108010001FC010401040104010801F4D
:10253000000000000000000080074008201000108C
:10254000001000100010001020104008800700004C
:10255000000000000000800F40084008200820080C
:1025600020082008200840084008800F00000000D4
:1025700000000000C00F0008000800080008800FDD
:102580000008000800080008C00F0000000000005C
:102590000000C00F0008000800080008800F0008B5
:1025A000000800080008000800000000000000000B
:1025B000800740082010001000100010E0112010CB
:1025C00020102008C00700000000000000002008C4
:1025D0002008200820082008E00F200820082008F4
:1025E000200820080000000000000000000800088B
:1025F000000800080008000800080008000800089B
:102600000008000000000000000080008000800042
:102610008000800080008000801080100011000E7B
:102620000000000000000000600880080009000AA7
:10263000000C000A000A0009800840082008000079
:102640000000000000000008000800080008000862
:1026500000080008000800080008800F00000000C3
:1026600000000000080808081808180C280C280C9E
:10267000280A480A48098809880800000000000064
:10268000000020082008200C200C200A2009200926
:10269000A00860086008200800000000000000009A
:1026A000800740082010201020102010201020103B
:1026B0002010400880070000000000000000801F7C
:1026C00040104010401040104010801F00100010BB
:1026D000001000100000000000000000800740080B
:1026E0002010201020102010201020102010400852
:1026F00080074000200000000000800F40084008D4
:10270000400840088008000F800880084008200822
:102710000000000000000000800F4010401000107A
:10272000000E80034000400040104010800F000069
:10273000000000000000E03F000200020002000272
:10274000000200020002000200020002000000007D
:102750000000000020102010201020102010201059
:10276000201020102010400880070000000000000A
:1027700000002020402040108010801080080009B8
:10278000000900050006000600000000000000002F
:102790008210C2104211441124112409240A280A6B
:1027A000180A08040804000000000000000040208F
:1027B000801080080009000600020005000980085A
:1027C0004010602000000000000000006020401069
:1027D00080108008000900060002000200020002CA
:1027E00000020000000000000000C01F8000800008
:1027F0000001000200020004000800100010C01FC9
:102800000000000000000018001000100010001070
:102810000010001000100010001000100010001038
:102820000018000000000020002000100010000828
:102830000008000800040004000400020002000078
:102840000000006000200020002000200020002068
:102850000020002000200020002000200060000058
:1028600000000008000C001400120012000000001C
:102870000000000000000000000000000000000058
:102880000000000000000000000000000000000048
:10289000000000000000007E0000000000000010AA
:1028A0000008000000000000000000000000000020
:1028B0000000000000000000000000000000000018
:1028C0000000000F80108000800F801080108011A9
:1028D000800E00000000000000000010001000103A
:1028E000001F801080108010801080108010001F4A
:1028F0000000000000000000000000000000000FC9
:10290000801080100010001000108010000F0000D8
:10291000000000000000800080008000800F801018
:1029200080108010801080108010800F0000000048
:1029300000000000000000000000000F8010801068
:10294000801F001000100008800700000000000039
:102950000006000800100010001C001000100010FD
:102960000010001000100010000000000000000027
:10297000000000000000800F801080108010801088
:1029800080108010800F80000011000F00000010E8
:102990000010001000178018801080108010801028
:1029A00080108010000000000000000000100000F7
:1029B00000000010001000100010001000100010A7
:1029C00000100000000000000000002000000000D7
:1029D00000200020002000200020002000200020F7
:1029E0000020002000C00000001000100010801126
:1029F00000120014001800140012001180100000D2
:102A00000000000000000010001000100010001076
:102A10000010001000100010001000100000000056
:102A2000000000000000000000003817C4188410E7
:102A300084108410841084108410000000000000B2
:102A400000000000000000000017801880108010B7
:102A50008010801080108010000000000000000036
:102A6000000000000000000F801080108010801017
:102A700080108010000F0000000000000000000027
:102A800000000000001F8010801080108010801057
:102A90008010001F00100010001000000000000057
:102AA0000000800F80108010801080108010801037
:102AB000800F800080008000000000000000000007
:102AC0000016001800100010001000100010001078
:102AD0000000000000000000000000000000000EE8
:102AE00000110010000C000300010011000E000096
:102AF000000000000000000000100010003C00106A
:102B000000100010001000100010000C0000000069
:102B10000000000000000000000080108010801005
:102B20008010801080108010800F000000000000D6
:102B300000000000000000008020002100110012B1
:102B40000012000A000C0004000000000000000059
:102B5000000000000000182110231013A012A01480
:102B6000A014600C400800000000000000000000FD
:102B70000000000080210012000A000C000C000A76
:102B80000011802100000000000000000000000093
:102B9000000080200021001100120012000A000C29
:102BA00000040004000800180000000000000000FD
:102BB000001F000100020004000800100010801F28
:102BC00000000000000000060008000800080008DF
:102BD00000080008001000080008000800080008AD
:102BE0000008000600000010001000100010001087
:102BF0000010001000100010001000100010001055
:102C00000000002000100010000800080008000864
:102C10000004000800080008000800100010002050
:102C2000000000000000000000000000200C201345
:102C3000C0110000000000000000000000000000C3
:102C4000100F00001C2100004C2C00000605060B94
:102C50000A0D0B040707080A050605080A0A0A0AEE
:102C60000A0A0A0A0A0A05050A0A0A09100B0B0CC5
:102C70000C0B0B0C0D060A0C0A0F0D0C0B0C0C0B9D
:102C80000B0C0B100B0B0B0608050808060A0A0AAA
:102C90000A0A080A0A050509050F0A0A0A0A0709A5
:102CA000070A090D0909090705070C00556E61623D
:102CB0006C6520746F20616C6C6F63617465206259
:102CC00075666665720000000000000000000000EC
:102CD0000000E261FF0F00000000000000000000A3
:102CE000000030000370000003700000037000005B
:102CF00003700000FF2C00000A3030002102071092
:102D000020020610300014001E020B480B490F234E
:102D1000034103432651034B08282710282416702B
:102D200005280A700B4105280A7021020510064D7E
:102D3000064C23021F101700BF0016001700BE002C
:102D400016001700BD0016001700BC001600170083
:102D5000BB0016001700BA0016001700B9001600D5
:102D6000170003531F40B800160017000A41160051
:102D70001F00FD3C035B876017000B410A492202DC
:102D80001F10BF0016001700BE0016001700BD0080
:102D900016001700BC0016001700BB001600170035
:102DA000BA0016001700B90016001700B800160088
:102DB00017000A4116001F00FD3C2358CA60170087
:102DC0000B490A490B400645064401280A70064D86
:102DD000064C0B48160006450644034328601F585E
:102DE000CA6017000B40064506440B280A70064DC2
:102DF000064C0B4817000A411600FF00170016008A
:102E0000FE0017001600FD0017001600FC0017005A
:102E10001600FB0017001600FA0017001600F90054
:102E2000170024152404035225151600F800240267
:102E3000250AC23417000B410A491F02011016006F
:102E400027159230035128240228031B0828271035
:102E50001C4F926017000B490A491F02011016000F
:102E60001C4FFD6017000B410A4901021F10BF00F3
:102E7000160017000370BE0016001700BD001600F4
:102E80001700BC0016001700BB0016001700BA00A0
:102E900016001700B90016002715ED30035128243D
:102EA0000228031B082827101C4F1700B800160023
:102EB000241524040352251517000A4116001F008B
:102EC000FD3C2402250AFD34CA6017000B410A4963
:102ED00016000645064401280A700B491B60034191
:102EE000034328240B480B490C2316001F000D39FF
:102EF000150003701E000D39082827102340170005
:102F00001600FF0017001600FE0017001600FD0057
:102F100017001600FC0017001600FB001700160033
:102F2000FA0017001600F9001F401F02230B07319B
:102F300017001600F800035373611F583D612651B6
:102F4000076117000B410A49AE6126514361170022
:102F50000B410A49796117000B410A491600170015
:102F60000A411600FF0017001600FE0017001600A9
:102F7000FD0017001600FC0017001600FB001700EC
:102F80001600FA0017001600F90017001600F800E6
:102F90001F02220B073117000B410A4916001700C8
:102FA0000A411600FF001F0089390B5F6D611E008A
:102FB0008B39034B17611F58076117000B410A49F2
:102FC000AE612348160017000A411600FF001F00DB
:102FD0008A3D03700B5782611E008B39264A1C4FB5
:102FE0000761234817001600FE0017001600FD00B9
:102FF00017001600FC0017001600FB001700160053
:10300000FA0017001600F90017001600F8001F025A
:10301000011017000B410A49271579310351282463
:103020000228031B082827101C4F796123401C4FDE
:1030300038240349160017000400010A1F1001017B
:103040000102BF000A4916001700BE001600170053
:10305000BD0016001700BC0016001700BB001600CC
:103060001700BA0016001700B90016002715D7314F
:10307000035128240228031B082827101C4F17007F
:10308000B800160017000A4116001F00B239264A80
:103090001C4F0761000000001400265807611B60E8
:1030A000E261E96153797374656D436C6B3A256431
:1030B0000D0A00004368697049443A253038780D9C
:1030C0000A0000004750494F20546F67676C652025
:1030D000544553540D000000524953432D384220AB
:1030E0007265706F72740000000000000000000044
:1030F00000000000000000000000000000000000D0
:1031000000000000000000000000000000000000BF
:1031100000000000000000000000000000000000AF
:10312000000000000000000000000000000000009F
:10313000000000000000000000000000000000008F
:103140000000000000000000232D302B20000000B4
:10315000686C4C0065666745464700003031323385
:103160003435363738394142434445460000000083
:1031700030313233343536373839616263646566ED
:04318000000000004B
:1031840001020304050607080102030405060708F3
:1031940001020304050607080102030405060708E3
:1031A400000000000831000028310000E830000071
:1031B400000000000000000000000000000000000B
:1031C40000000000000000000000000000000000FB
:1031D40000000000000000000000000000000000EB
:1031E40000000000000000000000000000000000DB
:1031F40000000000000000000000000000000000CB
:10320400006CDC0244444444444444444444444440
:10321400D802002020000020200000200000000030
:00000001FF
